:020000040000FA
:030000000200D328
:030033000208C9F7
:03004B000206A00A
:03006B0002080187
:03007B0002087305
:1000830002066E00000080FB1200E2B900030200CA
:10009300CDE4900101783E79028002F0A3D8FCD927
:1000A300FA90023EAA82AB839000E5781979018029
:1000B30015E493A3AC82AD838A828B83F0A3AA82D7
:1000C300AB838C828D83D8E9D9E7120A3412008678
:1000D30075D0007581BF75100175110102008B7910
:1000E3000122FF00000000000000000000000000EB
:1000F3000000E803000001000000C008C3E096F51B
:100103000808A3E096420808A3E096420808A3E083
:100113009645087001D3D00822E026F008A3E03604
:10012300F008A3E036F008A3E036F022E0F608A3D7
:10013300E0F608A3E0F608A3E0F622E0FAA3E0FB6A
:10014300A3E0FCA3E0FD22EAF0A3EBF0A3ECF0A311
:10015300EDF022700422600D18C6C333C608C633FF
:10016300C6D5E0F41822E4732510C582C0E0E5117A
:1001730034FFC583C0E0E510C3958224F910AF08AE
:100183008583118582108008858311858210D2AF03
:10019300CEF0A3E520F0A37808E608F0A3DEFAEF9B
:1001A300F0A3E58124FBF8E608F0A3E608F0A30832
:1001B30008E608F0A3E608F0A315811581D0E0FE58
:1001C300D0E0F815811581E8C0E0EEC0E02285118A
:1001D30083851082E0A3FEE0A3F5207808E0A3F670
:1001E30008DFFAE0A3FFE0A3C0E0E0A3C0E0E0A3E0
:1001F300C0E0E0A3C0E010AF0885821085831180C2
:1002030008858210858311D2AFD083D08222C0D0DB
:100213002510C582C0E0E51134FFC583C0E0E510B9
:10022300C3958224F310AF0885831185821080085B
:10023300858311858210D2AFC8F0A3E9F0A3EAF059
:10024300A3EBF0A37908E709F0A3D8FAECF0A3ED48
:10025300F0A3EEF0A3EFF0A3D0E0F0A3D0E0F0A37F
:10026300D0E0F0A3E520F0A3E5F0F0A3228511830D
:10027300851082E0C0E0A3E0F9A3E0FAA3E0FBA3CA
:100283007808E0F608A3DFFAE0FCA3E0FDA3E0FEB4
:10029300A3E0FFA3E0C0E0A3E0C0E0A3E0F5D0A3A8
:1002A300E0F520A3E0A3F5F010AF08858311858264
:1002B300108008858311858210D2AFD082D083D07D
:1002C300E0F8D0E032C082C08312064BD2AF79018E
:1002D3007A7D7B0112063390017DE0C2E7F064056D
:1002E300703D79057A7E7B01120633A3E0A2E550C7
:1002F30004D2F08002C2F0A2F0E433900246F09000
:100303000182E0A2E740030203A9900180E0F89094
:100313000101E06860030203A9A374010203A8E0DA
:1003230024F5900243F090017DE0F97A7E7B01127F
:100333000633A3E0A2E55004D2F08002C2F0A2F09B
:10034300E433900246F090018512055390023FE892
:10035300F0A3E9F09002447487F0A37401F09002D3
:1003630043E0F83395E0F9748728F8740139F98884
:10037300828983E0900247F088828983A3E0A2E721
:10038300501C90023EE0F8900180E06860109001FC
:100393007EE054DF644170069002487401F09001DE
:1003A30080E090023EF0C2AF12065E020659C082A0
:1003B300C0838A828B83120610E964017004790179
:1003C3008075C2AFA882A983900108E8F0A3E9F081
:1003D300900244E4F0A3F090010304F090024A1267
:1003E300013E90010412014A75F0059001081208BC
:1003F3005DA3A3A3A3E0A424D490618FF09001098B
:10040300120864120553E8906174F0E9A3F09001B7
:1004130008E0F8A312054AE8906172F0E9A3F0E559
:10042300A8F8C2AF9001FD74C8F0A37402F0E8A26B
:10043300E792AFD2AF790002065974F612016BEA64
:10044300FEEBFF8C088D09890A900103E0700675A5
:10045300E1EC75E1E3E9C394674003750A679061D2
:1004630093E0542270F812064B740B250A90010A8C
:10047300F012055990010B6004746180027441F01D
:10048300A37488F0900101E090010DF0900109122E
:10049300054A90010EE8F0A3E9F0A3EEF0A3EFF014
:1004A30090010812085D120553900112E8F0A3E9C8
:1004B300F07A0080218A82A882E50828F582E5097E
:1004C3003400F583E0C0E0741428F582740134002D
:1004D300F583D0E0F00AEAC3950A40D9740A250AE5
:1004E300F975E1EE7591FD780080128808740A258C
:1004F30008F58274013400F583E0F5D908E8C3995F
:1005030040E912065E75E1E9E591A2E150FA7591C1
:10051300FD120559600F900102E4F07A4A7B021242
:1005230005BEE06004790080027901900103E07068
:100533000675E1EF75E1ECE9A2E04006900101E008
:1005430004F07F030201D1120864A3A3120553220E
:10055300E0F8A3E0F922900108120861A3A3A3A382
:10056300A3E022E5C65480F853BEFBE59DA2E55007
:10057300FAE59DA2E240F4007401697007744948EA
:10058300F5C68005E9700288C6E5C6F8E59E687081
:10059300FB43BE0422E9F8E59EA2E640037901226B
:1005A300E8700553C67F8008740168700343C680F2
:1005B300E5C6F9E59E6970FB790022EBC313FBEAFC
:1005C30013FAEAF8EBF9E824FFFAE934FFFBE84908
:1005D30060130000000000000000000000000000A5
:1005E30000000080DD2274F812016BEAFEEBFFEEDF
:1005F300F8EFF9E824FFFEE934FFFFE84960097AE0
:10060300E87B031205BE80E77F010201D1C082C0EF
:1006130083906189E04460F09061FA7409F090611D
:10062300B27415F09061AEE4F012065E7900802694
:10063300C082C083800DE5D98A828B83F0A3AA820E
:10064300AB8319E970F0800EC082C0839061A3E090
:10065300C2E6F0539AFED083D08222C082C0839038
:1006630061A3E0D2E6F0439A0180EBC0E074F2129A
:100673000211A2AFE433FEC2AFE5E9A2E650149043
:1006830001FD12086D6006120864120169759B0072
:1006930053E9BFEEA2E092AF7F01020270C0E074A3
:1006A300F21202119001FF12086D60061208641223
:1006B300016980E4C292C280C2F989F9A2F950FCAF
:1006C30000000000D29222C292D280C2F989F9A21C
:1006D300F950FC80EB74F812016BE9FEEAFF74B089
:1006E3004FF91206B7EEC4540F4410F91206B7744B
:1006F3000F5EF91206B77F010201D174F812016B84
:1007030053F3FED28043FD0153F4FBD29243FE0424
:1007130053F37FC28743FD8079AF1206B779401246
:1007230006B779A01206B779A61206B779A41206FE
:10073300B779A21206B779C81206B7792F1206B78E
:1007430079F81206B779001206B779811206B779DC
:10075300381206B77F007E00EFFAEEF91206D87959
:10076300001206CA0EEEC3948440ED0FEFC3940843
:1007730040E4808279011209207902120920790369
:1007830012092079041209207A327B001205E980CC
:10079300E37900120598E960107901120566790082
:1007A300120598E96003120777790012056643FE84
:1007B30001C29043FE02C29143FE10C29443FD0264
:1007C300C28153F3EF53FDEF438F1053F5FE53FFF5
:1007D300FE43F70143F34043F10243F48043F44003
:1007E30043F420E59E75FB8075F800A2E0E4332412
:1007F3000F4420F5FC75FA531206FED2AF22C0E077
:1008030074F1120211C2C5E58960477E00750801C3
:10081300750900EE7808120156AF08E5895F602B71
:10082300EEC333F8E433F9740128F5827402120835
:100833006A6014EEC333F8E433F9740128F5827463
:100843000212085A120169EFF452890EEEC394089A
:1008530040BB7F0202027039F58312086122E0F87F
:10086300A3E0F58388822239F583120553E84922F0
:10087300C0E074F1120211C2EBE58A60477E007595
:100883000801750900EE7808120156AF08E58A5F82
:10089300602BEEC333F8E433F9741128F582740244
:1008A30012086A6014EEC333F8E433F9741128F5BF
:1008B30082740212085A120169EFF4528A0EEEC3CF
:1008C300940840BB808CC0E074F1120211C2E8E5C9
:1008D3008B60477E00750801750900EE78081201E8
:1008E30056AF08E58B5F602BEEC333F8E433F9743E
:1008F3002128F582740212086A6014EEC333F8E407
:1009030033F9742128F582740212085A120169EF2F
:10091300F4528B0EEEC3940540BB020855C082C04F
:1009230083E914600B14600D14600F1460118019B7
:100933006390018014639002800F639010800A63B8
:10094300800290022BE06401F0020659C082C0834A
:1009530090023C7401F002065974F112016B90028B
:100963004A780C12012F90022C7420F0A37425F006
:100973007A2C7B021203B1E96401700312077790AA
:10098300619074F5F0900103E4F075E1EF75E1EC2B
:1009930043E40C75DB0575DA1875E54453AFFEC205
:1009A300B9E5A8F8C2AF9001FF744FF0A37409F042
:1009B300E8A2E792AF90024A12013E90023212017E
:1009C3004A7800880874362508F58274023400F5E5
:1009D300837406F008E8C3940640E890023DE060A3
:1009E300FA90024E780C1200FD4030790A7C327D79
:1009F300027AEF7BBE12043D900252780812012F57
:100A0300900232780812011C90023CE4F079011242
:100A130009207AF47B011205E9800C90023DE07015
:100A23000474018001E4F090024A780C12012F80D3
:100A3300AA90023CE4F090023D04F090022E740769
:100A4300F0A37420F0900231E4F012079412061020
:100A5300E964017003120777D29075F10075F30C06
:100A630053FF3F43868043C50B43C2D8C2E97A5E36
:100A73007B011205E9900230740BF012095C020746
:010A830077FB
:04000005000000D324
:00000001FF
